:020000040000fa
:080000000002040000000000f2
:020000040000fa
:10000800d2020000d2020000d2020000d202000098
:10001800d2020000d2020000d2020000d202000088
:10002800d2020000d2020000d2020000d202000078
:10003800d2020000d2020000d2020000d202000068
:10004800d2020000d2020000d2020000d202000058
:10005800d2020000d2020000d2020000d202000048
:10006800d2020000d2020000d2020000d202000038
:10007800d2020000d2020000d2020000d202000028
:10008800d2020000d2020000d2020000d202000018
:10009800d2020000d20200004a850000d20200000d
:1000a800d2020000d2020000d2020000d2020000f8
:1000b800d2020000d2020000d2020000d2020000e8
:1000c800d2020000d2020000d2020000d2020000d8
:1000d800d2020000d2020000d2020000d2020000c8
:1000e800d2020000d2020000d2020000d2020000b8
:1000f800d2020000d2020000d2020000d2020000a8
:10010800d2020000d2020000d2020000d202000097
:10011800d2020000d2020000d2020000d202000087
:10012800d2020000d2020000d2020000d202000077
:10013800d2020000d2020000d2020000d202000067
:10014800d2020000d2020000d2020000d202000057
:10015800d2020000d2020000d2020000d202000047
:10016800d2020000d2020000d2020000d202000037
:10017800d2020000d2020000d2020000d202000027
:10018800d2020000d2020000d2020000d202000017
:10019800d2020000d2020000d2020000d202000007
:1001a800d2020000d2020000d2020000d2020000f7
:1001b800d2020000d2020000d2020000d2020000e7
:1001c800d2020000d2020000d2020000d2020000d7
:1001d800d2020000d2020000d2020000d2020000c7
:1001e800d2020000d2020000d2020000d2020000b7
:1001f800d2020000d2020000d2020000d2020000a7
:10020800d2020000d2020000d2020000d202000096
:10021800d2020000d2020000d2020000d202000086
:10022800d2020000d2020000d2020000d202000076
:10023800d2020000d2020000d2020000d202000066
:10024800d2020000d2020000d2020000d202000056
:10025800d2020000d2020000d2020000d202000046
:020000040000fa
:100400006f8322000eff27000e018800000000000d
:10041000000020000000e000020032000001200087
:10042000200288000c000700e0fe270001002000e9
:100430000f000700000020000000e0000200320072
:100440000000020000000000ec8402000000000038
:100450000040da000000fe00001e20000000e00066
:1004600002003200002020009001880000000600f9
:10047000a1028800800078000000eb001a0037001d
:10048000e280400054a0b4009101ba00e280400034
:1004900054a0b4009102ba00e280400054a0b4001d
:1004a0000002eb00472bde00f507b200a601880032
:1004b000602ce10008003a000049eb000201e8006e
:1004c000020039003420ec0002f0a0008301e900b2
:1004d000f9ff3e00040037006128e100010032000e
:1004e0000082eb00040007001101ba000200e000e6
:1004f000e3ff3a000000060004d0a300e20f490029
:100500001c003900810278003549ba000201e80078
:10051000020039003420ec0002f0a0008301e90061
:100520000f0032002549ba000201e800020039003c
:100530003420ec0002f0a0008301e9000800320042
:100540000400e0000600320015c9ba000201e8000c
:10055000020039003420ec0002f0a0008301e90021
:100560008180e80054a0b4000300e000e2ff3a00fc
:10057000000006009102ba00055978008301e900e5
:10058000f7ff3200c82ade00055978008301e90030
:10059000f3ff32000400e000f1ff320011d9ba008d
:1005a000eeff37000040da000000fe008000780017
:1005b0001104b100030035009101b10001003c00bd
:1005c0000050a00000000600800078001106b10075
:1005d000030035009101b10001003c000050a10072
:1005e0000000060016a2a9000000fa001682a8006a
:1005f0000080fa0000000600040024000000fa0059
:100600001602ab00feff3a001642ab00fcff3a00b8
:100610001662ab00faff3a001622ab00f8ff3a0070
:100620001682ab00f6ff3a00c61080008602620018
:10063000f3ff3a000080fa00000006001662a800ee
:100640000000fa001662ab00feff3a0018c2a900d3
:100650000080fa0080108000000006000080fb008f
:100660000000fa009010880000c0eb0018e2ab0018
:1006700009003a0004002400c610800086026200cf
:10068000fdff3a00dcff0700000028001802b6005a
:1006900001003200e0cfb3000080fa000000060045
:1006a00016a2a8000000fa001682a8000080fa0036
:1006b000000006001622a8000000fa000080fa00e0
:1006c000000006001602a8000000fa000080fa00f0
:1006d000000006001642a8000000fa000080fa00a0
:1006e000000006006022b800060220000000d000d2
:1006f0008180d2000482d2008582d2000000a00056
:100700000202520083825a000300310002024200ba
:1007100083824a000000a1000603e900f3ff3a00cb
:10072000000006000000fa00000278000200370016
:10073000015a78000201e900e00f5100fcff3a0085
:100740000080fa00000006000000fa00b0427800c5
:1007500031c2520002003a00e0cf5200fbff3a00e3
:100760000400fb000080fa00000006000000fa0010
:1007700000027800b1427800055a7800e0cf5200bc
:10078000fcff3a000080fa00000006000000fa00ba
:10079000000278008042eb00b4cf1200fdff3a0067
:1007a0000080ea000080fa0000004200000006001d
:1007b0000000fa000002780006003700314378009c
:1007c0000201e900065a780084027800e04f5300e5
:1007d0000600320084027800e00f5100f7ff3a0073
:1007e00002003700805aeb000201e900e00f5100df
:1007f000fcff3a000080fa00000006000000fa004a
:10080000889fbe000004be00e00f540003003a00c1
:1008100068418100e00f5400150032000800be005e
:100820008e000700000444000042eb00984f1200c5
:1008300003003a000004eb00684189000c00370017
:100840000800be0070000700000044000042eb00fa
:1008500060418900904f1200030032000058eb0005
:1008600060418900020037000002eb00644189000a
:10087000080078004f04be000080fa000000060067
:100880000c00fa00889fbe00f4ff270000047800e7
:10089000540798008004eb00080f780019079800af
:1008a00028079800240c200068015700340798009e
:1008b000ceb897000e0078009d0507001e02780054
:1008c000094a78001e0014004f04be000080fa00a0
:1008d00000000600a08022000000fa006801570016
:1008e000ceb89700920507000080fa0000000600cd
:1008f0000000fa00889fbe00010478008084eb00ad
:1009000038029000e20262003b00320004037800eb
:10091000980290000620b20002003a00e08f5200d8
:1009200035003a000490a000800478003404980058
:10093000f90fb200e08f520002003a00a8029000c6
:10094000050c7800ea8f540005003a000408b20054
:1009500003003a0088007800d0002000e4ff070080
:1009600018029000d8029000850f52000b00320050
:100970000402e80015c0b3001404980018027800bf
:10098000094a7800040ce80004832200054a780034
:10099000ea8f540018003a0005003700094078003b
:1009a000880078004f0007008004780012003700ac
:1009b000380290000410b2000f00320018019000bd
:1009c000a800900048009000e13f07001802900046
:1009d000840f500004003200380290000403b3007a
:1009e000340498008084eb000002eb0014049800ab
:1009f00028029000040c7800090078004f04be0023
:100a00000080fa00000006000000fa00889fbe0087
:100a1000800478008a1f78000004eb00010578004c
:100a2000010037000804e800b9407800e0cf50002a
:100a3000050032008100fb000a0078001c0007005e
:100a4000e00f5000f7ff32004f05780008007800f3
:100a50004f04be000080fa00000006000000fa000b
:100a6000889fbe00800478008a1f78000004eb0095
:100a700001057800010037000804e800b94078005b
:100a8000e0cf5000050032008100fb000a00780032
:100a900007000700e00f5000f7ff3a004f0578000d
:100aa000080078004f04be000080fa000000060035
:100ab0000002eb000000fa006103b80006004200eb
:100ac0009042780081cf5200040032000402e80016
:100ad000e0cf5200f9ff3a000000eb000080fa007e
:100ae000000006000200fa00889fbe0001047800a2
:100af000004f780038029000840278000504b200ac
:100b0000020032000000fb0033003700e202620006
:100b100005003a000403b30015049800340498005b
:100b20000080eb002c003700d8049000e08f5400c8
:100b300006003a00120020008e0078004800900065
:100b4000833f07001904980022003700a802900094
:100b5000e08f520008003a00458322000430a000d4
:100b600025049800050c7800340498002500200026
:100b7000550498001504980018019000a8009000f2
:100b800048009000723f0700280290008082eb002e
:100b9000150498001e4a7800040ce800a4c0b300b5
:100ba0009e4f12000b003a00380290000410b20071
:100bb0000800320018019000a80090004800900042
:100bc000633f07000002eb00140498002802900025
:100bd000040c78001e00fb004f04be000080fa00e9
:100be000000006002800fa00889fbe008a9fbe0011
:100bf0008c9fbe0007067800878669000c003b00ca
:100c0000030478008704780008f0a10009f0a1002f
:100c1000840f5000858f5800860f5900890f5c00a3
:100c2000030033000cf0a20001003a000cf0a10018
:100c3000fe0007006400e1005f0032007801470019
:100c40006408e100610032006c01470074855700c0
:100c50003200be001201be003a04be001a05be00fa
:100c60001e039000be0a90008503530006003d005d
:100c70000004fd008104fd000205fd008305fd0068
:100c80008703ea00050378000df8a3000400320092
:100c900060041400e0841c0060051d00e0851d0058
:100ca0006022b8007d0320000d38e1008006eb00d3
:100cb0000b0039004433dd00f300b2008301730000
:100cc00039003700848272000d027800e10664006a
:100cd0008b85d1000a85d3008984d3000884d30092
:100ce0008703e900f7ff3b000800400089804800c7
:100cf0000a0149008b81490004003b00600010009c
:100d0000e080180060011900e08119000358a30079
:100d1000090032008d8272008482720061026000dc
:100d20008301d1000281d3008180d3000080d300f1
:100d30000603e8001b0037000348a30017003a0031
:100d40000600e000170034000603e9000d00a300d0
:100d50000000480081804800020149008381490069
:100d60000348a3000f003a000600e0000900340029
:100d70000603e900000040008180480002014900ac
:100d80008381490001003a000003eb000348a300ff
:100d9000f5ff32006022b800020037008482720042
:100da000618266007500070003f0a1000cf0a70047
:100db00003f0a000b1003700640147006408e100bf
:100dc00002003a000df8a300a9003a003200be006c
:100dd0001201be00a90037008f1fd10011030700c8
:100de0008f87e9000000e00000000600809feb0014
:100df0000c0307008f87e9000000e00000000600f8
:100e00002800fa00889fbe008a9fbe008c9fbe000b
:100e100003866b00850007006400e1004400320097
:100e20006408e1004a0032006100e100460032003f
:100e30006108e10049003200ec0647006000b8009c
:100e40003d02be003d03be00f48657006011b800ad
:100e50003d04be003d05be007d0320000b003700b1
:100e60000000a0008d06e9001300320004024200d9
:100e700085824a0006034b0087834b000000400038
:100e80008180480002014900838149000802520024
:100e900089825a000a035b008b835b00f0ff3b00f2
:100ea0000802420089824a000a034b008b834b00f0
:100eb0008d06e900edff3a0084827200868272009e
:100ec000f707b2008782720001003200150020008f
:100ed0001e0490003e0b900006035400e63fb00055
:100ee0000368a300070032000000a7000500a0006f
:100ef0008301d1000281d3008180d3000080d30020
:100f00000603e8008301d1000281d3008180d30071
:100f10000080d3000002eb000482d200170007001b
:100f200003f0a1000cf0a70003f0a000530037006d
:100f3000640247006408e1004d0032003400be0046
:100f40003401be00f6ff37006108e10048003200be
:100f50006011b8006000b800f1ff370003ff270000
:100f600002002000fbff3700801feb00ad020700ee
:100f70008f87e9000000e000000006001800200054
:100f800057002000080453000d003d00060020001b
:100f900097fc2f000740e1001e003400848272009d
:100fa000610260008301d1000281d3008180d300ff
:100fb0000080d3000804e800f8ff3a004700200052
:100fc0006104600005047400040464000d00320034
:100fd00061004000e080480060014900e081490074
:100fe00003b8a500070032000603e8006538e100f9
:100ff00004003a008301d1000281d3008180d30034
:101000000080d300f87f20000830e10003003500a5
:10101000080378006000b8006011b8004433dd00b8
:10102000f300b2008301730000000600680447006b
:101030000294be000094be00fc0447008694be00eb
:101040008494be0009007800bf0207000800780001
:10105000bd02070099007800814f70000b003b0033
:101060000800be00980207004f00b10003003700df
:10107000f3ff2700f2ff2f006110b9004f06be00fa
:101080004f05be004f04be000080fa0000000600bd
:1010900081037800960007000001be006000b800e0
:1010a0000478a30013003a006220e10015003e001e
:1010b0000d0039008301d1000281d3008180d3006b
:1010c0008301d1000281d3008180d3008301d1004c
:1010d0000281d3008180d3000538b000c42add002e
:1010e000f300b2008381720007f0a70003f0a000b4
:1010f00000000600f3ff2700f2ff2f006110b90087
:10110000fbff370003ff2700f7ff37001400fa004a
:10111000889fbe008a9fbe008c9fbe000004be0058
:101120000205be00680047000a90be000890be009d
:10113000850207000070a7000bf0a1000bf8a300c8
:1011400020003a009e0990000e099000fe009000d9
:101150006e0090009e029000344320008482520072
:10116000c6ff32000a003c00b4fc2f000428e10056
:10117000140034008301d1000281d3008180d300a8
:101180000080d3008502e800faff3a00bbff370079
:10119000b40020000428e10007003c0000004000eb
:1011a0008180480002014900838149008502e900ed
:1011b000faff3a00b1ff37000300280002002000c8
:1011c000010037006011b8006000b800abff3700c5
:1011d000889fbe00008270000402710004827100ca
:1011e0002400320036432000c50020008383cf0056
:1011f0000a0039000541b1008283cf0007003900a1
:101200000541b1008183cf00040039000541b100e0
:101210008083cf00010039000541b10085c3530030
:101220006022b800120032000a003b008482720083
:10123000610260008301d1000281d3008180d3006c
:101240000080d3000603e8008743e800f7ff3a0078
:10125000070037000000400081804800020149007b
:10126000838149000603e9008743e900f9ff3a005a
:1012700042ff07004f04be00000006001400fa0001
:10128000889fbe008a9fbe008c9fbe000406780027
:101290000004be000205be00680047000a90be00c0
:1012a0000890be00280207006200e1000800be00ae
:1012b0000a01be00040020000b003a001e0290004c
:1012c000e43fb1006e009000fe0090000e09900017
:1012d0009e099000f300b20005fe23008581710095
:1012e0000bf0a70003f0a000040e780063ff3700a6
:1012f000c70ade00f107b200f50fb20008003200a5
:10130000e1cf4200020032000170a000240005007d
:10131000810f700001003200040805004400050040
:10132000810f700002003a00140005008502e900f8
:101330000000400081c04800fcff3b000170a0009d
:10134000240005002800fa00889fbe008a9fbe0086
:101350008c9fbe0003866b0034ff07000028a300ab
:1013600064003a000128a30067003a000008a300c7
:1013700062003a000108a30065003a001e009000d8
:10138000be08900081064000ed3fb100f480570098
:10139000ee019000111ab8008e099000311bb800c0
:1013a0009e099000311cb800511db800f48557000b
:1013b00046000700fe0190003a0007008b85e80018
:1013c0003e0007008e09900040000700ee019000eb
:1013d000340007008b85e800380007008e09900074
:1013e000400007009e0990001b18b80089044000c7
:1013f0000a854800fe019000340007008b85e80054
:1014000038000700ee019000300007008e099000c0
:101410001b18b800890440000a8548000a98a300f8
:1014200008003a000402420085824a0006034b008d
:1014300087834b0008044c0089844c000a054d004a
:101440008d06e90084827200850273004c3add004b
:10145000850272000100320015002000443ade00cf
:101460001400b2004538de00cb45dd000b007000f3
:10147000c540de00cb4ddd008b8070004549de00ad
:10148000cb55dd000b017100c551de000d03780066
:10149000bafe070003f0a1000cf0a70003f0a000c3
:1014a000f6fe37001b18b80085024000068348008e
:1014b000e0834b0060044c00070037001b18b800a5
:1014c0000603400087834800faff37001b18b80066
:1014d0008703400008844800e0844c0060054d000c
:1014e000000006001b18b80008044000898448006a
:1014f000faff37000108a300ddfe3a005800be00e5
:101500005801be00e3ff37000008a300d8fe3a00f0
:1015100009047800f9ff370007f0a200b1fd370099
:10152000020ab900001bb9000200b80081004200a5
:1015300081004300000006000000fa00889fbe0002
:101540008a9fbe003004be002005be000404440093
:1015500085844c0006054d0087854d000898be0027
:101560000a90be000440e10005c8e10006d0e10099
:1015700007d8e10002003100680040001008e800d0
:101580004f05be004f04be000080fa0000000600b8
:101590001000fa00889fbe008a9fbe000605be00ac
:1015a0000404be003002be002003be00049fbe0043
:1015b0000697be00110020000802520089825a00de
:1015c0000a035b008b835b00440798005507980073
:1015d00066079800770798000498be000698be003a
:1015e0003e02be002e03be000820e10009a8e10073
:1015f0000ab0e1000bb8e100010039008000eb0007
:101600004f05be00108810004f04be000080fa0095
:10161000000006001400fa00889fbe005b0007006f
:101620008a9fbe008c9fbe000006eb004c0798000e
:101630003c0798002c0798001c0798000c0f7800b6
:101640000605be000404be000d0420004e039000f9
:10165000be029000860343002e029000e00f53006c
:1016600003003d002a000700b3ff07000200370017
:1016700027000700c6ff0700ce029000150f980054
:10168000e08f5200090035004500070014002000db
:10169000050020006033b8000000720081807200f5
:1016a0000201730083817300380007000c06e80014
:1016b0008d0f5600e5ff3a001e0a9000e00f520021
:1016c00004003d000802be000a03be000e007800c0
:1016d00099ff07004eba9700e00f520006003a004b
:1016e0003e04be002e05be0058079800690798000a
:1016f0007a0798000b0f98004f06be0028000700dd
:101700004f05be004f04be000080fa000000060036
:101710004f2bde0022000700868373008582420083
:101720004f23de00470798008682720004024200c1
:10173000350798009e0290004f2bde008582420004
:1017400006027200240798001e0278004f23de0074
:101750000402420086827200150798004f18de00ce
:10176000000f72000e0007000802be000a03be0050
:101770000000400081804800020149008381490047
:10178000020007000e0078000000060050079800d5
:101790006107980072079800030f98000000060088
:1017a0005e009000ee0090007e0190008e09900097
:1017b000000006000000fa00881f780018002000d2
:1017c000881f780093ff07008f87e9004f04780097
:1017d0000080fa00000006000000fa00801feb0005
:1017e0008cff07008f87e9000080fa0000000600e8
:1017f0000000fa00889fbe008a9fbe00e00f5000e4
:10180000e08f5800e00f5900e08f59000c003d00b8
:101810006044b8006055b8000000540081805c004e
:1018200002015d0083815d001800200016000700a2
:1018300008003d00190007000004eb000500370018
:101840000004eb001000070002003d001300070039
:1018500018002000d7ff0700e00f540006003200f8
:101860006022b8006033b8000000520081805a0046
:1018700002015b0083815b004f05be004f04be0088
:101880000080fa0000000600e00f5200e08f5a00ce
:10189000e00f5b00e08f5b00000006006044b800d2
:1018a0006055b8000402540085825c0006035d00a8
:1018b00087835d00000006000000fa00889fbe00dc
:1018c0008a9fbe008c1f7800e00f5000e08f580008
:1018d000e00f5900e08f59000d003d006044b80052
:1018e0006055b8001c0020000000540081805c009e
:1018f00002015d0083815d000820e10009a8e1008c
:101900000ab0e1000bb8e1000d003d00080037000f
:101910000006eb00e00f5200e08f5a00e00f5b0082
:10192000e08f5b0006003d006044b8006055b800e1
:101930000402540085825c0006035d0087835d001d
:10194000a5ff0700e00f5600060032006022b80035
:101950006033b8000000520081805a0002015b0031
:1019600083815b004f0678004f05be004f04be0028
:101970000080fa00000006000000fa00889fbe0008
:101980008a9fbe008c1f78000006eb00e00f50001d
:10199000e08f5800e00f5900e08f590007003d002c
:1019a0006044b8006055b8001c00200000005400de
:1019b00081805c0002015d0083815d00e00f5200c8
:1019c000e08f5a00e00f5b00e08f5b0007003d00f6
:1019d0006044b8006055b8000c00a2000402540036
:1019e00085825c0006035d0087835d007d00070043
:1019f000e00f5600060032006022b8006033b800e5
:101a00000000520081805a0002015b0083815b006c
:101a10004f0678004f05be004f04be000080fa005c
:101a200000000600889fbe008a9fbe008c9fbe00fb
:101a30000404be000605be00809fbe00829fbe005b
:101a40002f000700040678000800be000a01be004f
:101a50002b000700840678004f03be004f02be0033
:101a60008d4f76007fb0970013003300f0ff2f00fa
:101a70008b8f6b0006003b000d0666000c00a70074
:101a80000a00370007f0a600100020000a00370007
:101a9000880f5200898f5a008a0f5b008b8f5b0082
:101aa000030039001000200001003e00000020006b
:101ab00007f0a7000000ea004f06be004f05be0079
:101ac0004f04be0000000600e48240001078a3002e
:101ad00007003200640240001178a3003400be0009
:101ae0001401be00040032000330a700000006000d
:101af0003500be001501be000330a0000000060046
:101b000005ff270005826100070032000428e1007c
:101b100001003200240005000600070001003a0021
:101b2000440005000408050002000700f9ff3a0020
:101b3000140005006f82610081027000850271004f
:101b40008502720000000600800078005002be008e
:101b50005003be004439de00f700b200f37f2000de
:101b600003016100090032000218e10016003a008a
:101b700085017200830173008381730000082000d7
:101b800015003a0040002000130037008501720064
:101b9000830173008381730005003a0004a8be002e
:101ba00006a8be00100020000b0037000201e9006b
:101bb0000402420085824a0006034b0087834b00e3
:101bc0000748a300f9ff32000740a00004a8be00a8
:101bd00006a8be0020002000800098009200980017
:101be00000000600889fbe008a9fbe008c9fbe003a
:101bf0000404b8000506b8008904460060854e005c
:101c00000606b8000a054600e0854e000706b80043
:101c10008b054600040eb800890446000a854e0074
:101c2000e0854d00050eb8000a0546008b854e0084
:101c3000060eb8008b0546000416b8000a054600db
:101c40008b854e000516b8008b054600041eb800b3
:101c50008b0546000800be000a01be004f06be000c
:101c60004f05be004f04be0000000600d4c6b300fe
:101c70000800fa00889fbe000084fb008a9fbe0017
:101c8000844f50002c003600a96422004b0620002f
:101c9000110009000b84d800720040004300dd00f1
:101ca00000804400810578006022b8000600200012
:101cb00007fe2300aa0020005001be004000be0025
:101cc000a0fd07000002be000203be0011000900d3
:101cd0008a85d800049fbe000697be008005780064
:101ce000e9854500c35ddd008b8544003e00be00f4
:101cf0002e01be003b02be002b03be0091fd07007b
:101d00000002be000203be00110009000a84d800d0
:101d1000049fbe000697be00010478004344dd0026
:101d2000888444003e00be002e01be003902be0081
:101d30002903be001d003700ea4f50001300360093
:101d4000aa002000a9642200110009000a84d8001a
:101d500001057800690440004355dd004344dd007f
:101d6000088444008a8444006022b80006002000f1
:101d700007fe23003800be002801be0071fd0700e9
:101d80003902be002903be0008003700a464220007
:101d90004344dd00080442006022b8000600200031
:101da00007fe23003800be002801be0065fd0700c5
:101db0004f05be004f04be000080fa000000060080
:101dc000d4c6b3000800fa00889fbe008a9fbe00f8
:101dd000e04f500022003d000040ea000004fb00fc
:101de000844f50000a00340044062000a90020005f
:101df000110009000404d800aa642200110009009f
:101e00008900d800e9004000c308dd002000370049
:101e1000ea4f50000f003400a40020001100090018
:101e20000404d800a4642200690040004300dd00df
:101e300000004200430cdd00080242005001be00d9
:101e40004000be005403be004402be003dfd07003a
:101e5000330037004344dd00a46422002d00370026
:101e60000004fb00844f50001f0034004406200093
:101e7000a9002000110009000404d800aa5922007a
:101e8000110009008900d800e9004000c308dd0006
:101e9000810045008b0920008a8545003102be0083
:101ea0002103be003b00be002b01be0025fd070044
:101eb0000002be000203be00110009000904d800a0
:101ec000049fbe000697be00010478004344dd0075
:101ed000080545003e00be002e01be003a02be00cd
:101ee0002a03be00d9ff3700ea4f50000700340034
:101ef000a4002000110009000404d800a459220005
:101f0000690040004300dd00c9ff37004344dd00a5
:101f1000a4592200080442003800be002801be0077
:101f20004f05be004f04be000080fa00000006000e
:101f30005a00fa00889fbe00111798008a9fbe00c1
:101f4000321f98008c9fbe00000678006000b80029
:101f50006011b80030179800411798005217980088
:101f6000631798008000eb00012f98000c063700e3
:101f70001e11900054c2b3000201e800121798002d
:101f8000844f500006003a00020378008006eb0000
:101f900007c3b30000c2b300b1c2b30010003700e2
:101fa0003c0290000404b200040032001c027800dd
:101fb000004a7800040ee800050037000000fb002e
:101fc0008c0078004afa0700e10f4000f405320067
:101fd0008e2990008301e800032f9800f005370058
:101fe00006027800d2c2b300b642780082cf520017
:101ff0000900320005003c0080cf5200080032008a
:1020000081cf52000c003a000700370087cf520002
:1020100009003a00060037000d30a000f0ff37003d
:102020000d00a000eeff37000d10a000ecff370000
:102030000d20a000eaff3700628366000100320035
:102040000d00a10068836600010032000d20a10090
:102050000503fb000603b100e90f53000d003e002d
:10206000840278008003eb003503fb00ea3ab900f4
:102070000603b100840343001503fb00050278004a
:102080000603b100e90f5300f7ff36004727980019
:102090000a0037000003eb0046279800a6c2b300f1
:1020a00086cf520005003a00be1b90000402e800f3
:1020b00047007800371f980040279800e5c2b3001a
:1020c00094cf120017003a000de0a000e4c25200c5
:1020d000d4cf120003003200840278008003eb00aa
:1020e000090037003e1990000402e800c2017800a0
:1020f000321f980003279800c7c6b3000d003700b1
:10210000ea3ab90084034300050278003503fb0076
:102110000603b100e90f5300f9ff360007279800c6
:10212000f5ff37008002eb000dc0a00005279800e6
:10213000f1ff370004037800b64278000602780009
:1021400087cf52002d00320016179800c4c6b30086
:1021500084cf520014003c006842520084cf5200e9
:102160002400320009003c006c42520084cf52002f
:102170002e0032006b42420084cf52009f0032009a
:10218000e0cf52008b053200bc00370064c6b300bc
:1021900084cf52001f0032006342420084cf5200bd
:1021a000b6003a001300370034c7b30084cf5200a2
:1021b0002200320007003c006442520084cf5200eb
:1021c000170032000442e80084cf5200ab003a000e
:1021d0001600370054c7b30084cf5200ab00320062
:1021e0006342420084cf5200a4003a00054f7800b9
:1021f00010003700054f7800a60037007083660096
:102200000501200001003200050028008d867200c3
:10221000c8ff3700054f78000da0a0009d003700d3
:10222000054f78000d60a0009a003700054f780038
:102230000d50a0000d70a000960037003e1b9000ce
:10224000054f780046027800361f98000404780095
:10225000e00f520001003a00687f22000803780076
:102260000002eb00010037000402e8008402430092
:102270008043eb0095cf1300fbff3a008404780005
:102280000e209000e00f500003003200890f500034
:1022900001003100800478000002eb00ce209000a5
:1022a000898f50000100360009825000e8866600e0
:1022b0000d27980030003a008406780004c2b3006d
:1022c00012003700bc0290000504b2000400320086
:1022d0009c027800844a7800050ee8000700370069
:1022e000342f98008c0078000002200080f907004d
:1022f0003e2a9000e10f4000030032000e299000ba
:102300000201e800022f98008d06e900e08f5600d8
:10231000ecff3a000082eb00170037003c0290000f
:102320000404b20009003200080278001c0378009f
:10233000b4427800054b780004047800060ee800eb
:10234000e0cf520008003a000c0037000802780085
:102350008c0078003400fb000404780064f9070066
:10236000e10f4000050032008e2990008301e80053
:10237000032f9800010037008406780009027800d6
:102380008404e900e00f5200e4ff3a000d027800f7
:102390008e229000e08f5200010532008406780002
:1023a00004c2b30012003700bc0290000504b20062
:1023b000040032009c027800844a7800050ee80090
:1023c00007003700342f98008c00780000022000ae
:1023d00047f907003e2a9000e10f40000300320059
:1023e0000e2b90000603e800062f98008d06e900ea
:1023f000e08f5600ecff3a00e9043700be1b900066
:10240000f08266004702780004007800cf80de008a
:102410000101780082017800371f9800401f980062
:10242000511f9800621f9800731f98004800de003b
:10243000480add0000007200004f7800e08f520073
:1024400009003200e04f500007003200e14f400029
:10245000050032008e7a90001047980025479800ba
:1024600029002000030037000e7b90001900200097
:10247000164798000e04e80081ff3700054f7800ea
:102480000e047800190020007dff3700054f78000a
:102490000d0cb30004702000048266008702320035
:1024a0000400210004826600020032006700200060
:1024b0000727980070826600090032003e1a9000db
:1024c0004401be004400be00341f9800401f980025
:1024d000511f9800621f9800731f98000a00370070
:1024e000be1a90004500be00351f9800e8fa0700ac
:1024f0000002be000203be00441f9800551f980052
:10250000661f9800771f98006022b8006033b800fb
:102510004e189000de1890006e199000fe19900081
:102520002dfa0700e00f50000a003d004e18900001
:10253000de1890006e199000fe19900003f0a200c2
:10254000401f9800511f9800621f9800731f980049
:102550003d00b3000002eb004e189000de18900022
:102560006e199000fe199000240798006022b800b0
:102570006033b8007cfa0700e00f500033003200ef
:10258000640247004e189000de1890006e1990000b
:10259000fe19900039fb07002e009000a4002000d7
:1025a0000000e900e300b900110009000400d800b0
:1025b00020079800e00f500002003d000000e900f5
:1025c000200798002e0490000840ea00fcfd070058
:1025d0004e1a9000de1a90006e1b9000fe1b9000b9
:1025e00058fb07000002be000203be00341798002b
:1025f0004517980056179800671798006022b80092
:102600000600200007ff2300f3f90700e00f500049
:1026100002003d000804e9000b0037006022b8000a
:1026200006002000470224003e109000ce109000cb
:102630005e119000ee119000ecf90700e00f5000e1
:10264000020035000804e800280798008e22900058
:10265000f88f52000f003c000540780083fd070012
:102660000002be000203be004e189000de1890006b
:102670006e199000fe1990005af907000002be0082
:102680000203be00441f9800551f9800661f980063
:10269000771f98002e049000e90f540015003c00ad
:1026a0006022b8006033b8004e189000de18900029
:1026b0006e199000fe1990002bfa0700e00f5000f1
:1026c000320032004e189000de1890006e19900013
:1026d000fe1990008dfa0700e00f5000e08f5800bf
:1026e000e00f5900e08f590028003a00e10f540034
:1026f000260034000400200005002e00b6e0220071
:10270000170124003e109000ce1090005e11900042
:10271000ee119000b0f90700e00f500002003d00fc
:102720007304540001003700720454002807980015
:102730004e409000a2fd07000002be000203be0052
:102740004e189000de1890006e199000fe1990004f
:102750003417980045179800561798006717980087
:10276000a7f9070069fa07000205be000004be00d1
:102770006000b8006011b800401f9800511f980019
:10278000621f9800731f9800170037004e189000c2
:10279000de1890006e199000fe1990005bfa070099
:1027a0000205be000004be0089fa07000002be0058
:1027b0000203be004e189000de1890006e199000c3
:1027c000fe19900054fb07000002be000203be0089
:1027d000441f9800551f9800661f9800771f9800a7
:1027e0000002eb00240798002170220010c0b30003
:1027f000080037003102be003103be000440e10092
:1028000005c8e10006d0e10007d8e1000300390067
:102810000040e800f44f5000f6ff3a00ce2290004e
:102820002e0290000e23900004825200004f780088
:10283000860252000002fb000482520044279800e6
:10284000e00f5300020032000402e9004427980020
:102850006382660003003200ce2390008703e90004
:1028600047279800648266004f003200628266004b
:10287000e1826600e00f5200170032003c02900037
:102880000404b200080032001c037800b4c2b30094
:10289000e08f52000100320004c2e800044b7800cf
:1028a000060ee80008003700b0022000e08f52005a
:1028b000010032000080e8008c0078000cf807006e
:1028c000e10f4000280032000e2890000000e800d0
:1028d000002f980024003700e08f520022003200c1
:1028e0003c0290000404b200050032009c02780013
:1028f00004c2b300844a7800050ee80005003700e2
:102900008c00780000022000f9f70700e10f40007a
:10291000150032008e2890008100e800012f9800f9
:10292000110037003c0290000404b20004003200a1
:102930001c027800054a7800040ee8000700370002
:10294000452f98008c00780000032000e8f707006e
:10295000ce2a9000e10f4000010032000804e80098
:102960008904e9000700370078179800091f9800cc
:102970001a1f98002b1f98000e2c9000ce24900058
:1029800005c3b300e08f5400e6ff3c0049279800e0
:10299000082f98007e1490008e1c90001e1d900041
:1029a000ae1d90007e0037006882660021003a006c
:1029b000110037003c0290000404b2000400320011
:1029c0001c027800054a7800040ee8000700370072
:1029d000452f98008c00780000022000c4f7070003
:1029e000ce2a9000e10f4000010032000804e80008
:1029f0008904e9000700370078179800091f98003c
:102a00001a1f98002b1f98000e2c9000ce249000c7
:102a100005c2b300e08f5400e6ff3c004927980050
:102a2000082f98007e1490008e1c90001e1d9000b0
:102a3000ae1d900062826600e1826600e00f5200e7
:102a4000170032003c0290000404b200080032007b
:102a50001c037800b4c2b300e08f520001003200c2
:102a600004c2e800044b7800060ee80008003700b6
:102a7000b0022000e08f5200010032000080e80028
:102a80008c0078009af70700e10f40004400320004
:102a90008e2890008100e800012f98004000370048
:102aa000e08f52003e0032003c0290000404b2006d
:102ab000050032009c02780004c2b300844a78000a
:102ac000050ee800050037008c00780000022000a9
:102ad00087f70700e10f4000310032000e29900017
:102ae0000201e800022f98002d0037003c02900000
:102af0008502fb000404b20013003200a46f220020
:102b0000c32add00850242009c0178005503be0007
:102b10004502be00731798000800be000a01be00ff
:102b200024fb0700a4002000050020006033b8004b
:102b300029fb0700fe12900006c3b300864a40003e
:102b4000050ee80013003700a76f2200c32add003e
:102b5000858243000800be000a01be005503be0086
:102b60004502be0013fb0700a40020000500200062
:102b70006033b80018fb07008c00780004032000c5
:102b8000000242000400780059f70700e10f4000fe
:102b9000030032000e2890000000e800002f98008b
:102ba0001e4278008442e900054f7800e04f520051
:102bb000ceff3a00110037003c0290000404b2003e
:102bc000040032001c027800084a7800040ee80075
:102bd000050037008c0078000003200044f7070050
:102be000e10f4000010032008904e8002e0290004d
:102bf0000402e90024079800020037008e2c9000a0
:102c000008c3b3002e029000e00f5200eaff3c0020
:102c1000092f98008e209000f28f5000030034009e
:102c200024c1b300044f7800020037000ec19000a9
:102c3000024f78009e4278008e2190000502fb0032
:102c40000482510074179800e0cf52001000320047
:102c50003c0290000404b200050032001c0278001f
:102c6000e5c2b300054a7800040ee800050037000d
:102c70008c007800e00220001df70700e10f400003
:102c8000030032000e2a90000402e800042f98008e
:102c90001e4078004afc07000002be000203be008e
:102ca0004e189000de1890006e199000fe199000ea
:102cb000a4f9070015f90700360037003c02900020
:102cc0008502fb000404b20013003200a76f22004b
:102cd000c32add00858243001c0378000800be0083
:102ce0000a01be00062798005503be004502be003b
:102cf000b0fa0700a4002000050020006033b800ef
:102d0000b5fa07000e22900005c3b300054a400043
:102d1000040ee80013003700a66f2200c32add006e
:102d2000850243000800be000a01be005503be0034
:102d30004502be009ffa0700a40020000500200005
:102d40006033b800a4fa07008c0078000403200068
:102d50000002420004007800e5f60700e10f4000a1
:102d6000030032008e2b90008703e800072f9800a5
:102d7000a06f22001e02fb004322dd00040240007f
:102d80000800be000a01be005403be004402be009b
:102d900091fa07001e4278000205be000004be0042
:102da0008442e900054f7800e04f5200c3ff3a002b
:102db00011003700bc0290000504b200040032008c
:102dc0009c027800844a7800050ee800070037006e
:102dd000342f98008c00780000032000c4f6070010
:102de0003e2a9000e10f4000010032000804e80094
:102df0008904e900070037000e2c9000fe149000b3
:102e00000027980011279800222798003327980060
:102e100004c3b300e08f5400e6ff3a00082f980087
:102e2000e88666000e2490009e2490002e259000d7
:102e3000be259000e08f560059023200ce2090004f
:102e4000e08f5000560234000802be000a03be00a4
:102e50000e2c90000dc2b300810478003c0090005d
:102e60000004b200040032001c0078000d48780015
:102e7000000ee8000d003700342f9800452f980011
:102e8000162f9800272f98008c0078000002200051
:102e900097f607003e2a9000ce2a90001e2b900045
:102ea000ae2b9000e10f4000010032000804e80062
:102eb0008904e900e9ff3a00380237008d02780002
:102ec000050cb2002a003a00e08f560005003d00d4
:102ed0003e1990004205be004204be00321f980019
:102ee00016003700708266000e0032003e1b900014
:102ef0004602be00140f9800250f9800361f980058
:102f0000160290004fa2de00340f9800440f980084
:102f10001e0c9000ae0c90003e0d9000ce0d900067
:102f2000060037003e18900040047800301f9800db
:102f3000cfc4de00090578008a057800e00f540050
:102f4000e08f5c00e00f5d00e08f5d0023003d003e
:102f50006022b8006033b8003d00b300080452009e
:102f600089845a000a055b008b855b001b003700d3
:102f7000e08f560005003d00be1890004105be00e0
:102f80004104be00311f980014003700f082660033
:102f90000c003200be1a90004501be007407980074
:102fa0005207980063079800040f9800351f980097
:102fb0005e049000ee0490007e0590008e0d90005f
:102fc00006003700be1b900047047800371f9800aa
:102fd000090020000a0020000b0020000e209000b5
:102fe000e00f500009003a0011002000012798006e
:102ff000e00f5400e08f5c00e00f5d00e08f5d00ab
:10300000020032000001eb00022798008d017800d9
:1030100004042000030cb200431f9800848f510069
:103020002c00320003003c00e08f51000800320009
:103030003c00370004082000ce1a9000848f520014
:1030400010003200040c2000848f520035003a003a
:103050002570220014c0b3003500be003501be004b
:103060000040e10001c8e10002d0e10003d8e10026
:103070002b0039000442e800f44f5200f6ff3a00fa
:103080002700370014c0b300000120000100200019
:103090006011b8000040e10001c8e10002d0e10089
:1030a00003d8e1001e003900460020000000d000d7
:1030b0008180d2000281d2008381d2000603e90020
:1030c000faff3a000442e800f04f5200f1ff3a00e4
:1030d0001300370014c0b30080002000010020005e
:1030e0006011b8000040e10001c8e10002d0e10039
:1030f00003d8e1000a003900370020000000d000aa
:103100008180d2000281d2008381d2008703e9004e
:10311000faff3a000442e800f54f5200f1ff3a008e
:10312000044f78001e02fb000e209000800f52001a
:1031300002003d00004f7800040037008e20900010
:10314000848f500001003d00042798004e2190001c
:10315000e00f51000400320063826600020032007a
:103160000201e9004227980004002400048266005e
:1031700009003200ce2190000e229000848f510071
:103180000300340084815100432798000200370077
:103190008002eb00452798000003eb001e02fb00b5
:1031a00076179800ce239000848f530002003400dd
:1031b0000482530074179800648266004f00320046
:1031c000e282660061826600e08f520017003200e2
:1031d000bc0290000504b200080032001c03780015
:1031e000b5c2b300e00f52000100320085c2e80012
:1031f000054b7800060ee80008003700b0022000fa
:10320000e00f5200010032000080e8008c007800de
:10321000b7f50700e10f4000160032000e289000bd
:103220000000e800002f980012003700e00f520065
:10323000100032003c0290000404b200050032008d
:103240001c02780005c2b300054a7800040ee800ad
:10325000050037008c00780000022000a4f507006c
:10326000e10f4000030032008e2890008100e8004a
:10327000012f98007e119000e00f51006f00320086
:1032800048279800592798006a2798007b279800bc
:103290000e2c9000fe14900005c3b3003c02900079
:1032a0000404b200040032001c027800054a7800d1
:1032b000040ee80007003700452f98008c007800c6
:1032c000000320008af50700ce2a9000e10f40009d
:1032d000010032000804e8008904e900efff3a0029
:1032e00079179800082f98004e249000de24900053
:1032f0006e259000fe25900050003700fe109000d3
:10330000e08f500020003200688266001e003a0004
:1033100048279800592798006a2798007b2798002b
:103320000e2c9000fe14900005c2b3003c029000e9
:103330000404b200040032001c027800054a780040
:10334000040ee80007003700452f98008c00780035
:103350000002200066f50700ce2a9000e10f400031
:10336000010032000804e8008904e900efff3a0098
:1033700079179800082f98004e249000de249000c2
:103380006e259000fe259000e28266006182660054
:10339000e08f520017003200bc0290000504b2001a
:1033a000080032001c037800b5c2b300e00f5200e1
:1033b0000100320085c2e800054b7800060ee800e7
:1033c00008003700b0022000e00f52000100320078
:1033d0000080e8008c00780045f50700e10f400010
:1033e000160032008e2890008100e800012f98001e
:1033f00012003700e00f5200100032003c02900033
:103400000404b200050032001c02780005c2b300bb
:10341000054a7800040ee800050037008c007800ab
:103420000002200032f50700e10f400003003200e7
:103430000e2990000201e800022f98008e219000d2
:10344000a46f22008302e9004827980059279800ba
:103450006a2798007b279800c32add000482420077
:103460008d027800241798000502b2007082660071
:103470003507980044079800a00037008e20900080
:103480004e1990008100e9000304200001279800f4
:10349000830f51007300320003003c00e00f510025
:1034a000080032008000370004082000ce1a900087
:1034b000848f520055003200040c2000848f52008b
:1034c00079003a00e08f56001f003d002e13900057
:1034d0004e209000de2090006e219000fe21900092
:1034e0003604be002605be000802be000a03be0068
:1034f000b0f807000802be000a03be00004f7800c3
:103500000000fb00cf80de0001017800820178001e
:1035100019f907004e229000de2290006e239000e1
:10352000fe2390000002520081825a0002035b00d9
:1035300083835b00442798005527980066279800ee
:10354000772798002e003700ce029000e08f5200bf
:10355000220032002e1390004e229000de229000b6
:103560003604be002605be000400be00342f9800bd
:10357000452f98000801be005af407000801be005c
:10358000004f78000000fb00cf80de00e4f707006a
:103590003e2a9000ce2a90000001520081815a00fc
:1035a0000002eb00520f9800630f98000417980078
:1035b0008001eb00730f98005e089000ee08900009
:1035c0007e0990008e1190004027980051279800a6
:1035d000622798007327980009003700ae1090000a
:1035e0004e21900011027800110009000481d800da
:1035f000a4002000110009000480d800014f7800c9
:1036000003c3b3001ecf410027003700547e2200c1
:10361000be029000e08f520001003200447d220083
:103620000e2390004e209000de2090006e2190002e
:10363000fe219000c232dd008502e9000500330062
:103640008301d1000281d3008180d3000080d300a8
:10365000f9ff3700ef02600005024200144f7800c6
:10366000110037008e2390004e209000de20900045
:103670006e219000fe219000e33ab9000404780026
:103680000804e900050033008301d1000281d30062
:103690008180d3000080d300f9ff370067426000cb
:1036a00000c3b300004f42003c0290000404b2008b
:1036b000070032009c0278001e427800844a78009d
:1036c000050ee800e04f520006003a0008003700ff
:1036d0001e00fb008c00780085f40700e10f40001d
:1036e000030032008e2890008100e800012f98002e
:1036f0002e11900068015100221798008e21900031
:10370000e08f51005dff3a004e249000de249000cf
:103710006e259000fe259000e886660020003200ad
:103720007e129000e00f52001d0034000802be001f
:103730000a03be000e2c9000fe1490000dc2b300d0
:103740003c0090000004b200040032001c0078002d
:103750000d487800000ee8000d003700342f980067
:10376000452f9800162f9800272f98008c0078007e
:10377000000220005ef407003e2a9000ce2a90004e
:103780001e2b9000ae2b9000e10f40000100320094
:103790000804e8008904e900e9ff3a00082f9800ce
:1037a0009e12900015407800004f7800e04f5000c6
:1037b000eff93a004f06be000e2890004f05be00fc
:0c37c0004f04be000080fa00000006006c
:020000040000fa
:1037cc0012010000000200000000000000080000d0
:1037dc00d8040000090000000100000001020000f4
:1037ec00030100000902000020000000010100009c
:1037fc0000c00000320900000400000000020000bc
:10380c0008060000500000000705000081020000bf
:10381c00400000000107000005010000024000000c
:10382c000001000004030000090400003403000040
:10383c004d000000690000006300000072000000f1
:10384c006f000000630000006800000069000000c9
:10385c007000000020000000540000006500000013
:10386c0063000000680000006e0000006f000000a4
:10387c006c0000006f000000670000007900000081
:10388c0020000000490000006e00000063000000f2
:10389c002e0000003a0300004d00000069000000fb
:1038ac0063000000720000006f0000006300000065
:1038bc00680000006900000070000000200000009b
:1038cc004d00000061000000730000007300000058
:1038dc002000000053000000740000006f00000086
:1038ec00720000006100000067000000650000002d
:1038fc00200000004400000072000000690000007d
:10390c0076000000650000001a0300003100000082
:10391c0032000000330000003400000035000000cd
:10392c0036000000370000003800000039000000ad
:10393c00300000003800000038000000f89b000048
:10394c00189c00001c9c0000509c00008a9c0000ed
:10395c003c67000070780000207600006572000063
:10396c00736900006f6e00003d220000312e0000d4
:10397c0031220000206300007265000061740000b9
:10398c006f7200003d220000446f0000756700005c
:10399c00205700006562000065720000223e0000a6
:1039ac00003c000077700000742000006c61000087
:1039bc00743d00002225000075220000206c0000e0
:1039cc006f6e00003d22000025750000223e0000b5
:1039dc00003c0000746900006d6500003e000000b2
:1039ec003c2f0000746900006d6500003e00000073
:1039fc003c65000078740000656e0000736900007f
:103a0c006f6e0000733e0000002500006600000091
:103a1c003c73000070650000656400003e0000000f
:103a2c003c2f00007370000065650000643e0000d0
:103a3c00003c00002f65000078740000656e0000eb
:103a4c00736900006f6e0000733e0000003c0000c4
:103a5c002f770000707400003e0000003c2f000027
:103a6c0067700000783e0000000000000095000028
:103a7c00000000000000000001f900000000000040
:103a8c000000000008870000040000000000000097
:103a9c0009af000000000000010000000a1b00003c
:103aac0000000000010000000cc300000100000039
:103abc00000000000daf000002000000000000003c
:103acc0010ff0000000000000000000011ff0000cb
:103adc00000000000100000012ff000000000000c8
:103aec000100000018ff00000000000001000000b1
:103afc0019ff0000000000000100000020ff000082
:103b0c00000000000000000021ff00000000000089
:103b1c000000000026df0000010000000000000093
:103b2c003773000000000000000000003a25000080
:103b3c0004000000000000003b2500000000000015
:103b4c000000000029ff000004000000000000003d
:103b5c0017ff0000000000000000000047500000ac
:103b6c00524d0000430000002573000000240000ab
:103b7c00000000002e2e00000000000024000000b9
:020000040000fa
:103b8c000200fa000002eb00040f78000500370079
:103b9c00244a22001e02420015c0b300054a7800d8
:103bac001e0fe8001e027800e20f5200f8ff3400ee
:103bbc00a44a22008042eb00054a7800544a2200b5
:103bcc008042eb00054a78000082eb008082eb001b
:103bdc0014418900254189000082eb008082eb00b2
:103bec0034418900454189005f2b0700a055220014
:103bfc006f02070000427800e04f520035003a0097
:103c0c0054418100a5552200050a780054418100d9
:103c1c008002eb0055029800544181008002eb00b9
:103c2c0065029800564181006022b8007403980028
:103c3c00050b9800564181006022b800140b9800c7
:103c4c00250b980054418100c5c5b300455a980016
:103c5c0014002000040f7800060037005441810046
:103c6c001e0242007c02420005c2b300054a7800e5
:103c7c001e0fe8001e027800ea0f5200f7ff340016
:103c8c00544181008002eb004512980054418100a0
:103c9c0005012000651298005641810064258100c1
:103cac007525810074139800051b980056418100fe
:103cbc006425810075258100141b9800251b980034
:103ccc00044b22008042eb00054a780014002000cf
:103cdc00010037000002eb00040078000080fa00bd
:103cec00000006001400fa00881f78007007980086
:103cfc00010f980022579800335798007e029000cd
:103d0c004412900064079800b4002000040f78005f
:103d1c007e029000841a9000741290007e03900032
:103d2c00141b9800251b98000e0a90006413900039
:103d3c00060278000482ea008582ea0024079800d3
:103d4c006e029000e00f52000b003a006c0247002c
:103d5c0012c0b300840078007e00900012080700a7
:103d6c0000027800e00f520011003a00b40120006c
:103d7c00040f78000e0037006e0290006f02620094
:103d8c00e00f52000a0032006c02470012c0b30070
:103d9c00840078007e009000030807000002780081
:103dac00e00f520002003a00b4012000040f78002a
:103dbc001e027800fb0f5200dd0032001e0278005c
:103dcc00e00f5200d70032006c02470084007800ec
:103ddc007e0090006d0c070000427800644798004c
:103dec006e429000e24f5200d00032006e429000c2
:103dfc00e04f5200b8003a007e029000e4129000ae
:103e0c0045079800ce029000f40320000482620063
:103e1c00440798003e5290000482fb00e00f5200d1
:103e2c0003003200e10f520031003200b9003700bc
:103e3c004e029000e80f5200ad0032000002eb0081
:103e4c00040f7800d4c6b300244f98000042eb0056
:103e5c0024479800220037002e4290000482fb0079
:103e6c00fe0290007c024200048242001442780060
:103e7c00244f98002e4290000482fb008e0a900082
:103e8c007c0242000482420014427800344f9800b5
:103e9c002e4a90000482fb0004007800c0f1070059
:103eac00000478003e4a90000482fb000400780075
:103ebc00bbf1070000027800840f540005003200ab
:103ecc00b4002000040f7800000000000000000087
:103edc00900037002e4290000442e80024479800de
:103eec002e429000ea4f5200dbff3600890037006b
:103efc00ce0290002e02900004826200e00f52006d
:103f0c007d003a004e029000ef0f52007c00320010
:103f1c000002eb00040f7800d4c6b300244f9800c5
:103f2c000e0a9000c45a9000a4c2b30084cf520071
:103f3c00300032000042eb00244798002800370084
:103f4c002e4290000482fb00fe0290007c02420094
:103f5c000482420014427800244f98002e429000b4
:103f6c000482fb008e0a90007c0242000482420014
:103f7c0014427800344f9800be4a9000a4c2b3009b
:103f8c0084cf52001a003200be4a9000f4c3b30032
:103f9c0084cf52000f0032002e4a90000482fb00a6
:103fac00040078007ef10700000478003e4a90007f
:103fbc000482fb000400780079f10700000278000d
:103fcc00840f540003003200b4002000040f78006a
:103fdc00080037002e4290000442e8002447980065
:103fec002e429000e74f5200d5ff360001003700fb
:103ffc00000000000e0a9000c4629000a4c2b3003e
:10400c0084cf5200400032001e027800e00f5200b4
:10401c003f003a0084c0b3002447980029003700c1
:10402c002e4290000482fb00fe0290007c024200b3
:10403c000482420014427800244f98002e429000d3
:10404c000482fb008e0a90007c0242000482420033
:10405c0014427800344f9800be4a9000a4c2b300ba
:10406c0084cf520001003a001a003700be4a90007b
:10407c00f4c3b30084cf52000f0032002e4a9000dc
:10408c000482fb000400780045f10700000478006e
:10409c003e4a90000482fb000400780040f10700c7
:1040ac0000027800840f540003003200b40020009a
:1040bc00040f7800070037002e4290000442e800fd
:1040cc00244798002e429000ea4f5200d4ff36004d
:1040dc00100037000f0037002e529000e04f5200b6
:1040ec000c003a000002eb00040f780009003700c6
:1040fc00000000000700370000000000050037003a
:10410c000000000003003700000000000100370031
:10411c00000000006e0290000402e80064079800a2
:10412c0026ff3700000000000100370000000000ef
:10413c001e027800040078004f0478000080fa001a
:10414c00000006001000fa00500798006107980064
:10415c00624f98000002eb00040f78005e029000a2
:10416c0094027800150798001e02900034629000ab
:10417c00e04f520003003a0074002000040f780056
:10418c00930037005e029000841a90007412900025
:10419c005e039000141b9800251b98006e02900083
:1041ac0014027800e00f52000a003a0012c0b3006b
:1041bc00ee0090005e009000fb0607000002780005
:1041cc00e00f520011003a00b4012000040f7800f7
:1041dc000e0037006e029000140278006f0262002d
:1041ec00e00f52000900320012c0b300ee00900044
:1041fc005e009000ec06070000027800e00f520011
:10420c0002003a00b4012000040f7800ee00900088
:10421c005e0090005d0b0700004278004447980058
:10422c004e429000e04f520003003200b4002000d8
:10423c00040f7800660037005e0390006022b8001f
:10424c0074039800050b98005e029000a402900085
:10425c00140290005e03900034039800450398000c
:10426c005e0290008002eb00550298005e02900006
:10427c008002eb00650298004e429000e14f520024
:10428c0003003a00b4002000040f7800330037001c
:10429c005e029000c4029000340290000401be0043
:1042ac001e009000121107000002be003407980097
:1042bc0045079800844a220014427800e04f5200cf
:1042cc00060032004813070000427800e04f52000d
:1042dc0002003200940020003e0037005e03900084
:1042ec003625890036418100474181003e0290000d
:1042fc00ce029000840f5300858f5b0017003200b4
:10430c00a44a22008042eb00054a78001e0290006d
:10431c00144378008682fb00144290000482fb0058
:10432c004822dd0004827200040178003e009000f7
:10433c00ce009000382a070000427800e04f52006f
:10434c0002003a0084002000040f78003e02900026
:10435c00ce0290003441890045418900de02900074
:10436c00350a90000420a100b40a9800ee4a90008f
:10437c0074c7b30084cf520004003200ee4a9000a0
:10438c0014c6b30084cf520009003a00de0290003c
:10439c00350a90000400a000b40a9800de029000d8
:1043ac00350a90000410a100b40a980008003700e8
:1043bc00de029000350a90000400a100b40a9800b7
:1043cc00de029000350a90000410a000b40a980098
:1043dc001e027800040078000080fa00000006003d
:1043ec001a00fa00200f9800320f9800430f980023
:1043fc000042eb00044f98002e0a900094027800c3
:10440c00550798005e029000246290000482fb0025
:10441c00e10f52000a003200e30f520010003a0084
:10442c0084ff2f00f5ff2000240798003507980023
:10443c00f4ff2f00f5ff2000048fbe0010003700a2
:10444c0084ff200005002000240798003507980001
:10445c00f4ff2f0005002000048fbe000800370079
:10446c0084ff2f00050020002407980035079800d2
:10447c00f4ff2f0005002000048fbe000000000098
:10448c002e0a900034039000c40390006607980035
:10449c00770798006e019000fe0190005e0090007e
:1044ac00b61707000002be00040f9800150f980005
:1044bc000e0a90009e0a9000be0f5200ae8f5a005a
:1044cc0003003a0084c0b300044f98002100370069
:1044dc005e039000c65390008783fb0056509000fb
:1044ec000080fb004800dd00808373000702780029
:1044fc00e65390008783fb00765390000683fb0005
:10450c004833dd00068373008602780062034200a4
:10451c00e0834a000e0a90009e0a9000840f53001c
:10452c00858f5b0002003e00a4c0b300044f9800ce
:10453c000e0b90009e0b90002e029000be0290007d
:10454c00840f5300858f5b0002003900c4c3b30095
:10455c00044f98002e0a90000e0b90009e0b9000ba
:10456c0036029800470298003e0a9000ce0a90004e
:10457c0061025200e0825a00340f9800450f9800f7
:10458c003e0a9000ce0a9000e00f5200e08f5a00d5
:10459c00030032000e4a9000e04f5200b8ff320088
:1045ac000e4a9000044078000080fa0000000600db
:1045bc000600fa00200798000042eb00044f780038
:1045cc002e0290008042eb00356298002e02900083
:1045dc0005002200f60f2000068362009443780049
:1045ec00e0c3630006c37300064a7800c82ade00e5
:1045fc001443900060436300854273001542980099
:10460c008b2c070000027800140798001e02900003
:10461c0014427800e04f52000600320064c0b30030
:10462c00044f7800044b220065c0b300054a7800a3
:10463c003d0037001e029000940278000410200008
:10464c0004826200e00f5200260032001e0290002d
:10465c00140290006123b8002e029000f50f200088
:10466c008502630004589000604060008542700031
:10467c00055a9800c832de00145890006040600063
:10468c0085427000155a9800f50f20008582630052
:10469c00245890006040600085427000255a9800b4
:1046ac00c83ade00345b90006043630085427300bf
:1046bc00355a98001e0290009402900004202000ad
:1046cc00848f52000700360014c2b300044f7800e8
:1046dc00044b220015c2b300054a78001e42780034
:1046ec00120037002e0090001300070000427800e3
:1046fc00044f78001e427800e04f52000a003a0046
:10470c002e0090005d01070000427800044f7800f5
:10471c001e427800e04f520003003a002e02900037
:10472c0015c0b300356298001e4278000440780032
:10473c000080fa00000006000c00fa0050079800f8
:10474c000042eb00044f78005e02900014437800a6
:10475c008682fb00144290000482fb004822dd009c
:10476c0004827200040178006000b8002a29070056
:10477c0000427800e14f52000600320084c0b300c2
:10478c00044f7800044b220085c0b300054a780022
:10479c00360137005e029000144378008682fb00dd
:1047ac00144290000482fb004822dd000482720057
:1047bc00240798002e029000e4fa930054c5b3002d
:1047cc0084cf5200b5003a002e029000f4fa930008
:1047dc00a4cab30084cf5200b0003a005e0290002d
:1047ec00144378008682fb00144290000482fb0084
:1047fc004822dd000482720061032000040078006e
:10480c00700f07000042780065c4b300854f52005a
:10481c004a003a005e029000144378008682fb0046
:10482c00144290000482fb004822dd0004827200d6
:10483c007103200004007800620f0700004278002a
:10484c0015c4b300854f52003c003a005e02900044
:10485c00144378008682fb00144290000482fb0013
:10486c004822dd00048272008103200004007800dd
:10487c00540f07000042780045c5b300854f520025
:10488c002e003a005e029000144378008682fb00f2
:10489c00144290000482fb004822dd000482720066
:1048ac009103200004007800460f070000427800b6
:1048bc0015c3b300854f520020003a005e029000f1
:1048cc00144378008682fb00144290000482fb00a3
:1048dc004822dd000482720061022000040078008e
:1048ec00380f07000042780095c2b300854f520084
:1048fc0012003a005e029000a4429000e0c26200f6
:10490c0025429800b4429000e0c262003542980003
:10491c00c4429000e0c2620045429800d44290002c
:10492c00e0c26200554298005e02900025c0b300c0
:10493c00256298000042eb00cd0037005e0290002b
:10494c00144378008682fb00144290000482fb0022
:10495c004822dd000482720021052000040078004a
:10496c00180f07000042780065c4b300854f520051
:10497c004a003a005e029000144378008682fb00e5
:10498c00144290000482fb004822dd000482720075
:10499c0031052000040078000a0f0700004278005f
:1049ac0015c4b300854f52003c003a005e029000e3
:1049bc00144378008682fb00144290000482fb00b2
:1049cc004822dd00048272004105200004007800ba
:1049dc00fc0e07000042780045c5b300854f52001d
:1049ec002e003a005e029000144378008682fb0091
:1049fc00144290000482fb004822dd000482720005
:104a0c005105200004007800ee0e070000427800eb
:104a1c0035c3b300854f520020003a005e0290006f
:104a2c00144378008682fb00144290000482fb0041
:104a3c004822dd000482720021042000040078006a
:104a4c00e00e07000042780095c2b300854f52007b
:104a5c0012003a005e029000a4429000e0c2620094
:104a6c0025429800b4429000e0c2620035429800a2
:104a7c00c4429000e0c2620045429800d4429000cb
:104a8c00e0c26200554298005e02900035c0b3004f
:104a9c00256298000042eb00750037005e02900022
:104aac00144378008682fb00144290000482fb00c1
:104abc004822dd0004827200340798003e02900008
:104acc00e4fa930054c5b30084cf520005003a00b9
:104adc003e029000f4fa9300a4cab30084cf5200b3
:104aec0006003200044b220045c0b300054a780092
:104afc0044c0b300044f78005c0037003e029000c5
:104b0c00e41bb000140798000042eb001447980017
:104b1c004e0037001e029000844a90008582fb00f4
:104b2c00144890000080fb004800dd008082720079
:104b3c0005037800a44a90008582fb00344a90005b
:104b4c000482fb004822dd0004827200840378009a
:104b5c005e029000f50f2000850263002440900057
:104b6c00604060008542700025429800c832de002b
:104b7c0034409000604060008542700035429800df
:104b8c00f50f200085826300444090006040600077
:104b9c008542700045429800c83ade0054439000ac
:104bac006043630085427300554298001e029000da
:104bbc00c4429000054f98000e4a90000482fb00fe
:104bcc00ee0f52001b003e0015002000042add00f1
:104bdc000505240085026200e08f52000b003a00ac
:104bec000580210085026200e08f52000c003a0023
:104bfc0062026200e00f52000e0032005e02900072
:104c0c0015c0b300256298000a0037005e029000c0
:104c1c0025c0b300256298001e42780014003700ae
:104c2c005e02900035c0b300256298001e427800e9
:104c3c000f0037001e02900070024200140798000b
:104c4c001e4290000442e800144798001e42900057
:104c5c00e34f5200afff3600044b220055c0b300a7
:104c6c00054a780054c0b300044f78001e42780007
:104c7c00044078000080fa00000006001a00fa00d8
:104c8c00881f7800400f98000042eb0044479800c2
:104c9c000002eb00340798000002eb004407980078
:104cac004e0a9000144078008082fb001442900061
:104cbc000482fb004822dd00048272008403780029
:104ccc004e0b9000264090000080fb00b6409000f8
:104cdc008180fb00c808dd00010070000002780034
:104cec00464090000080fb00564390000683fb007a
:104cfc004833dd0006037000860278000701780057
:104d0c000400be00c427070000427800e14f5200a7
:104d1c000300320084c0b3004447980014033700ea
:104d2c004e0a9000944078008182fb00144290005f
:104d3c000482fb004822dd000482720054079800b4
:104d4c005e029000e4fa930054c5b30084cf520085
:104d5c0005003a005e029000f4fa9300a4cab30076
:104d6c0084cf52000300320034c0b3004447980093
:104d7c003b0237004e0a9000144378008682fb00f9
:104d8c00144290000482fb004822dd000482720071
:104d9c00e100200004007800130e070000027800e8
:104dac00640798004e0a9000944378008782fb00b9
:104dbc00144290000482fb004822dd000482720041
:104dcc00d100200004007800fe0d0700004278009e
:104ddc00ce0a9000946298004e0b9000a64390006f
:104dec008783fb00364090000080fb004800dd000c
:104dfc008083730007027800c64390008783fb0012
:104e0c00564390000683fb004833dd000683730095
:104e1c00860278006e039000070020000403430014
:104e2c0085834b004e0a9000f50f2000850263002d
:104e3c0064409000604060008542700065429800bc
:104e4c00c832de0074409000604060008542700003
:104e5c0075429800f50f200085826300044890008d
:104e6c006040600085427000054a9800c83ade0038
:104e7c00144b90006043630085427300154a980000
:104e8c004e0a9000144478008882fb001442900073
:104e9c000482fb004822dd00048272000101200024
:104eac0004007800c70d070000427800ce0a90007d
:104ebc00846298004e0a9000144078008082fb00b7
:104ecc00144290000482fb004822dd000482720030
:104edc006101200004007800c30d07000002780077
:104eec006123b8004e0a9000f50f20008502630084
:104efc00445890006040600085427000455a98000c
:104f0c00c832de005458900060406000854270004a
:104f1c00555a9800f50f2000858263006458900064
:104f2c006040600085427000655a9800c83ade0007
:104f3c00745b90006043630085427300755a98005f
:104f4c004e0b9000c65b90008783fb005658900078
:104f5c000080fb004800dd008083730007027800ae
:104f6c00e65b90008783fb00765b90000683fb007a
:104f7c004833dd000683730086027800e00f520090
:104f8c00e08f5a0022003a004e0a900094407800bc
:104f9c008182fb00144290000482fb004822dd0059
:104fac00048272004102200004007800aa0d070060
:104fbc000003be004e0a9000f50f2000850263002e
:104fcc00445890006040600085427000455a98003b
:104fdc00c832de005458900060406000854270007a
:104fec00555a9800f50f2000858263006458900094
:104ffc006040600085427000655a9800c83ade0037
:10500c00745b90006043630085427300755a98008e
:10501c004e0a9000e44290008582fb00744390009d
:10502c000683fb004833dd008682720005007800a1
:10503c00844a90008582fb00144a90000482fb0095
:10504c004822dd0004827200840078004e0a900031
:10505c00046290000483fb00070020004e099000be
:10506c00c25990008381fb00525c90000884fb00c5
:10507c004844dd008881710003027800e2599000f9
:10508c008381fb00725990000281fb004811dd0006
:10509c00028171008202780084b9b90086acb90033
:1050ac0088017800030141000603780004027800af
:1050bc000432b8000501410082027800000342006e
:1050cc0081834a004e0a9000f50f20008502630090
:1050dc00244890006040600085427000254a98008a
:1050ec00c832de0034489000604060008542700099
:1050fc00354a9800f50f20008582630044489000e3
:10510c006040600085427000454a9800c83ade0055
:10511c00544b90006043630085427300554a9800dd
:10512c004e0a9000144078008082fb0014429000dc
:10513c000482fb004822dd00048272001101200071
:10514c0004007800280d0700800278004e0a9000b9
:10515c00f60f200006836200a4539000e0c36300a6
:10516c0006c3730026529800c82ade003453900000
:10517c006043630085427300355298004e0a9000dc
:10518c00944078008182fb00144290000482fb0062
:10519c004822dd00048272003101200004007800f6
:1051ac00110d07000002780005002000048fbe00de
:1051bc001e02be00e00f5200e08f5a000c003a00b5
:1051cc004e0a9000144378008682fb001442900033
:1051dc000482fb004822dd000482720001022000e0
:1051ec00040078001c0d07000002be00048fbe00f6
:1051fc004e0a9000944378008782fb001442900082
:10520c000482fb004822dd0004827200b100200001
:10521c0004007800f40c0700000278007407980072
:10522c007e029000e00f5200050032007e029000da
:10523c006102620004427800e04f52000300320029
:10524c0014c2b30044479800050137004e0a900081
:10525c00a45290008582fb00345290000482fb0023
:10526c004822dd0004827200c522dd007e0290001f
:10527c00048242008402e9007e02900011000900c1
:10528c008482d8000002780005002000040f9800ea
:10529c00150f98006e0290006121b8004e0a900024
:1052ac00046290000483fb00070020004e0890006d
:1052bc00c05890008180fb00505c90000884fb007b
:1052cc004844dd008880700001027800e0589000ae
:1052dc008180fb00705890000080fb004800dd00ce
:1052ec00008070008002780084b8b90086acb900e8
:1052fc008800780001004000060378000402780062
:10530c000432b8000500400080027800020342001d
:10531c0083834a000e0a90009e0a90000602420007
:10532c0087824a003e001200ae801a000002be00c6
:10533c00240f9800350f98004e0a900014629000cc
:10534c000482fb00050020000401be002e08900022
:10535c00be089000e0ec07000002be000403be0093
:10536c004e0a9000f50f2000850263004450900017
:10537c00604060008542700045529800c832de00e3
:10538c005450900060406000854270005552980067
:10539c00f50f20008582630064509000604060002f
:1053ac008542700065529800c83ade007453900034
:1053bc006043630085427300755298004e0b900059
:1053cc00c65390008783fb00565090000080fb0072
:1053dc004800dd008083730007027800e6539000dc
:1053ec008783fb00765390000683fb004833dd0077
:1053fc00068373008602780046ff20000700200019
:10540c00860f5200878f5a0004003e004e0a90000f
:10541c0015c0b300256298001b0037004e0b90009e
:10542c00c65390008783fb00565090000080fb0011
:10543c004800dd008083730007027800e65390007b
:10544c008783fb00765390000683fb004833dd0016
:10545c00068373008602780046ff2f0007002000a9
:10546c00860f5200878f5a0004003e004e0a9000af
:10547c0025c0b30025629800030037004e0a900047
:10548c0035c0b300256298004e0a9000246290004b
:10549c00e34f520038003a004e0a900094407800d6
:1054ac008182fb00144290000482fb004822dd0044
:1054bc0004827200c102200004007800660c070010
:1054cc000002be0064258900752589004e0b9000f2
:1054dc00a64b90008783fb00364890000080fb00b1
:1054ec004800dd008083730007027800c64b9000f3
:1054fc008783fb00564b90000683fb004833dd008e
:10550c0006837300860278000e0b90009e0b9000b1
:10551c000403430085834b004e0a9000f50f2000d6
:10552c008502630064489000604060008542700012
:10553c00654a9800c832de007448900060406000f4
:10554c0085427000754a9800f50f20008582630033
:10555c000450900060406000854270000552980035
:10556c00c83ade0014539000604363008542730018
:10557c0015529800340037006022b8006425890069
:10558c00752589004e0b9000a64b90008783fb007d
:10559c00364890000080fb004800dd0080837300db
:1055ac0007027800c64b90008783fb00564b900097
:1055bc000683fb004833dd00068373008602780007
:1055cc004e0b9000a65390008783fb00365390003f
:1055dc000683fb004833dd00068373004433de0092
:1055ec00070020000403430085834b004e0a900003
:1055fc00f50f200085026300644890006040600055
:10560c0085427000654a9800c832de0074489000ec
:10561c006040600085427000754a9800f50f2000cc
:10562c0085826300045090006040600085427000e9
:10563c0005529800c83ade00145390006043630092
:10564c008542730015529800fe0290000420200041
:10565c00848f52000200360014c2b30044479800f5
:10566c004e0a900024629000e34f52000d0032006d
:10567c004e429000e04f5200b60032005e029000a5
:10568c00a4c2900094c2b30084cf52000500320033
:10569c005e029000a4c2900084c2b30084cf52007a
:1056ac00ae003a005e029000b45290008582fb007e
:1056bc00445290000482fb004822dd0004827200f8
:1056cc00e00f52003a003a005e02900044729000e3
:1056dc00e04f520036003a005e0290005472900087
:1056ec00e04f520032003a005e029000647290006b
:1056fc00e04f52002e003a005e029000747290004f
:10570c00e04f52002a003a005e029000047a9000aa
:10571c00e04f520026003a005e029000147a90008e
:10572c00e04f520022003a005e029000247a900072
:10573c00e04f52001e003a005e029000347a900056
:10574c00e04f52001a003a005e029000447a90003a
:10575c00e04f520016003a005e029000547a90001e
:10576c00e04f520012003a005e029000647a900002
:10577c00e04f52000e003a005e029000747a9000e6
:10578c00e04f52000a003a005e029000a4c2900062
:10579c0094c2b30084cf5200070032005e02900026
:1057ac00a4c2900084c2b30084cf52000200320025
:1057bc0034c0b300444798004e429000e04f520072
:1057cc00340032003e029000e00f520031003a00eb
:1057dc0014002000340798004e0a900014437800ff
:1057ec008682fb00144290000482fb004822dd00fc
:1057fc0004827200040078004e0b9000a6439000c7
:10580c008783fb00b64090008180fb00c808dd0058
:10581c008183730007027800c64390008783fb00e6
:10582c00564390000683fb004833dd00068373006b
:10583c00860278005e039000a67390008783fb00bd
:10584c00367390000683fb004833dd00068373003b
:10585c00070020000402430085824b000001780001
:10586c000400be00ec24070000427800e14f520017
:10587c0005003200044b220085c0b300054a7800b5
:10588c0084c0b300410037000042eb00444798004d
:10589c002f0037004e429000e04f52003100320092
:1058ac004e029000e00f520030003a00140020002d
:1058bc00440798004e0a9000944378008782fb00be
:1058cc00144290000482fb004822dd000482720026
:1058dc00840378004e0b9000264090000080fb0063
:1058ec00b64090008180fb00c808dd00010070000c
:1058fc0000027800464090000080fb005643900068
:10590c000683fb004833dd00060370008602780036
:10591c0066024200e0824a00070178000400be00e3
:10592c00bd24070000427800e14f52000500320010
:10593c00044b220085c0b300054a780084c0b30034
:10594c00120037000042eb004447980000000000b2
:10595c00fbfc3700000000000500370000000000d1
:10596c0003003700000000000100370000000000b9
:10597c004e429000e04f520003003200044b2200d4
:10598c004e449000084a78004e4290000440780043
:10599c004f0478000080fa00000006000600fa00b0
:1059ac00200798006022b800048fbe002e029000e1
:1059bc00240a900005002000048fbe001e02be00c9
:1059cc00c022dd0004002000048fbe002e029000d7
:1059dc00540a9000050020001e1f72001e977200d2
:1059ec001e02be000400be000080fa00000006008b
:1059fc001000fa0060079800710798006e02900082
:105a0c0014007800100798006e029000141b900090
:105a1c00a41b900026079800370798007e02900080
:105a2c00140278006120b8001e039000865b900081
:105a3c008783fb00165990000281fb004811dd00a2
:105a4c008283730007027800a65b90008783fb00bb
:105a5c00365b90000683fb004833dd000683730041
:105a6c0086027800cb2bdd004522de000482730019
:105a7c00c52ade000401be0017eb07000002be00c1
:105a8c00144798001e029000246290000482fb00d0
:105a9c00e10f520020003500e20f52000c003400e0
:105aac00e30f52001c003a001e029000146290009a
:105abc009e4290008582fb000482fb0011000900cd
:105acc008482d80001027800144798001200370035
:105adc0064258100752581002e039000be03900083
:105aec00840f5300858f5b000a0032001e02900069
:105afc00146290009e4290008582fb000482fb00a1
:105b0c00110009008482d800010278001447980023
:105b1c0001003700000000002e019000be01900033
:105b2c001e009000f20a07000002be004407980015
:105b3c00550798001e029000144378008682fb00e3
:105b4c00144290000482fb004822dd0004827200a3
:105b5c00040078001e4290000483fb000700200024
:105b6c004e029000de0290000602420087824a003c
:105b7c008041eb00000178000400be007126070094
:105b8c0000427800e04f520003003a000042eb0064
:105b9c00044f78000200370014c0b300044f7800a3
:105bac001e427800044078000080fa0000000600d5
:105bbc001400fa0070079800010f9800120f98005b
:105bcc000002eb00440798001e0a9000246290002b
:105bdc000482fb00e10f52000a003200e30f520076
:105bec0010003a00f4ff2f00f5ff20002407980066
:105bfc003507980084ff2f00f5ff2000048fbe00ae
:105c0c0010003700f4ff2f00050020002407980037
:105c1c003507980084ff200005002000048fbe008b
:105c2c0008003700f4ff2f0005002000240798001f
:105c3c003507980084ff2f0005002000048fbe005c
:105c4c00000000007e0290008e0a9000e00f5200cf
